{
  "_format": "hh-sol-artifact-1",
  "contractName": "BusinessContract",
  "sourceName": "contracts/BusinessContract.sol",
  "abi": [
    {
      "anonymous": false,
      "inputs": [
        {
          "components": [
            {
              "internalType": "uint256",
              "name": "contractID",
              "type": "uint256"
            },
            {
              "internalType": "uint256",
              "name": "Price",
              "type": "uint256"
            },
            {
              "internalType": "string",
              "name": "itemName",
              "type": "string"
            },
            {
              "internalType": "string",
              "name": "Description",
              "type": "string"
            },
            {
              "internalType": "string",
              "name": "interestRate",
              "type": "string"
            },
            {
              "internalType": "string",
              "name": "status",
              "type": "string"
            },
            {
              "internalType": "uint256",
              "name": "startDate",
              "type": "uint256"
            },
            {
              "internalType": "bytes32",
              "name": "pawnerShippingHash",
              "type": "bytes32"
            },
            {
              "internalType": "bytes32",
              "name": "ownerShippingHash",
              "type": "bytes32"
            }
          ],
          "indexed": false,
          "internalType": "struct SharedStructs.pawnOrder[]",
          "name": "allOrders",
          "type": "tuple[]"
        }
      ],
      "name": "AllOrders",
      "type": "event"
    },
    {
      "anonymous": false,
      "inputs": [
        {
          "indexed": false,
          "internalType": "uint256",
          "name": "repayAmount",
          "type": "uint256"
        }
      ],
      "name": "LoanRepayAmount",
      "type": "event"
    },
    {
      "anonymous": false,
      "inputs": [
        {
          "indexed": false,
          "internalType": "uint256",
          "name": "orderNum",
          "type": "uint256"
        }
      ],
      "name": "OrderCreated",
      "type": "event"
    },
    {
      "inputs": [
        {
          "internalType": "uint256",
          "name": "",
          "type": "uint256"
        }
      ],
      "name": "Orders",
      "outputs": [
        {
          "internalType": "uint256",
          "name": "contractID",
          "type": "uint256"
        },
        {
          "internalType": "uint256",
          "name": "Price",
          "type": "uint256"
        },
        {
          "internalType": "string",
          "name": "itemName",
          "type": "string"
        },
        {
          "internalType": "string",
          "name": "Description",
          "type": "string"
        },
        {
          "internalType": "string",
          "name": "interestRate",
          "type": "string"
        },
        {
          "internalType": "string",
          "name": "status",
          "type": "string"
        },
        {
          "internalType": "uint256",
          "name": "startDate",
          "type": "uint256"
        },
        {
          "internalType": "bytes32",
          "name": "pawnerShippingHash",
          "type": "bytes32"
        },
        {
          "internalType": "bytes32",
          "name": "ownerShippingHash",
          "type": "bytes32"
        }
      ],
      "stateMutability": "view",
      "type": "function"
    },
    {
      "inputs": [
        {
          "internalType": "uint256",
          "name": "_orderID",
          "type": "uint256"
        }
      ],
      "name": "acceptOrder",
      "outputs": [],
      "stateMutability": "nonpayable",
      "type": "function"
    },
    {
      "inputs": [
        {
          "internalType": "uint256",
          "name": "",
          "type": "uint256"
        }
      ],
      "name": "allOrders",
      "outputs": [
        {
          "internalType": "uint256",
          "name": "contractID",
          "type": "uint256"
        },
        {
          "internalType": "uint256",
          "name": "Price",
          "type": "uint256"
        },
        {
          "internalType": "string",
          "name": "itemName",
          "type": "string"
        },
        {
          "internalType": "string",
          "name": "Description",
          "type": "string"
        },
        {
          "internalType": "string",
          "name": "interestRate",
          "type": "string"
        },
        {
          "internalType": "string",
          "name": "status",
          "type": "string"
        },
        {
          "internalType": "uint256",
          "name": "startDate",
          "type": "uint256"
        },
        {
          "internalType": "bytes32",
          "name": "pawnerShippingHash",
          "type": "bytes32"
        },
        {
          "internalType": "bytes32",
          "name": "ownerShippingHash",
          "type": "bytes32"
        }
      ],
      "stateMutability": "view",
      "type": "function"
    },
    {
      "inputs": [
        {
          "internalType": "uint256",
          "name": "_orderID",
          "type": "uint256"
        },
        {
          "internalType": "uint256",
          "name": "_shippingNumber",
          "type": "uint256"
        }
      ],
      "name": "assignOwnerShippingHash",
      "outputs": [],
      "stateMutability": "nonpayable",
      "type": "function"
    },
    {
      "inputs": [
        {
          "internalType": "uint256",
          "name": "_orderID",
          "type": "uint256"
        },
        {
          "internalType": "uint256",
          "name": "_shippingNumber",
          "type": "uint256"
        }
      ],
      "name": "assignPawnerShippingHash",
      "outputs": [],
      "stateMutability": "nonpayable",
      "type": "function"
    },
    {
      "inputs": [
        {
          "internalType": "uint256",
          "name": "_orderID",
          "type": "uint256"
        }
      ],
      "name": "checkRepayAmount",
      "outputs": [
        {
          "internalType": "uint256",
          "name": "",
          "type": "uint256"
        }
      ],
      "stateMutability": "nonpayable",
      "type": "function"
    },
    {
      "inputs": [
        {
          "internalType": "uint256",
          "name": "_Price",
          "type": "uint256"
        },
        {
          "internalType": "string",
          "name": "_itemName",
          "type": "string"
        },
        {
          "internalType": "string",
          "name": "_Description",
          "type": "string"
        },
        {
          "internalType": "string",
          "name": "_interestRate",
          "type": "string"
        }
      ],
      "name": "createOrder",
      "outputs": [
        {
          "internalType": "uint256",
          "name": "",
          "type": "uint256"
        }
      ],
      "stateMutability": "nonpayable",
      "type": "function"
    },
    {
      "inputs": [
        {
          "internalType": "uint256",
          "name": "_orderID",
          "type": "uint256"
        }
      ],
      "name": "deleteOrder",
      "outputs": [],
      "stateMutability": "nonpayable",
      "type": "function"
    },
    {
      "inputs": [],
      "name": "getAllOrders",
      "outputs": [
        {
          "components": [
            {
              "internalType": "uint256",
              "name": "contractID",
              "type": "uint256"
            },
            {
              "internalType": "uint256",
              "name": "Price",
              "type": "uint256"
            },
            {
              "internalType": "string",
              "name": "itemName",
              "type": "string"
            },
            {
              "internalType": "string",
              "name": "Description",
              "type": "string"
            },
            {
              "internalType": "string",
              "name": "interestRate",
              "type": "string"
            },
            {
              "internalType": "string",
              "name": "status",
              "type": "string"
            },
            {
              "internalType": "uint256",
              "name": "startDate",
              "type": "uint256"
            },
            {
              "internalType": "bytes32",
              "name": "pawnerShippingHash",
              "type": "bytes32"
            },
            {
              "internalType": "bytes32",
              "name": "ownerShippingHash",
              "type": "bytes32"
            }
          ],
          "internalType": "struct SharedStructs.pawnOrder[]",
          "name": "",
          "type": "tuple[]"
        }
      ],
      "stateMutability": "nonpayable",
      "type": "function"
    },
    {
      "inputs": [
        {
          "internalType": "uint256",
          "name": "_orderID",
          "type": "uint256"
        }
      ],
      "name": "getOrder",
      "outputs": [
        {
          "components": [
            {
              "internalType": "uint256",
              "name": "contractID",
              "type": "uint256"
            },
            {
              "internalType": "uint256",
              "name": "Price",
              "type": "uint256"
            },
            {
              "internalType": "string",
              "name": "itemName",
              "type": "string"
            },
            {
              "internalType": "string",
              "name": "Description",
              "type": "string"
            },
            {
              "internalType": "string",
              "name": "interestRate",
              "type": "string"
            },
            {
              "internalType": "string",
              "name": "status",
              "type": "string"
            },
            {
              "internalType": "uint256",
              "name": "startDate",
              "type": "uint256"
            },
            {
              "internalType": "bytes32",
              "name": "pawnerShippingHash",
              "type": "bytes32"
            },
            {
              "internalType": "bytes32",
              "name": "ownerShippingHash",
              "type": "bytes32"
            }
          ],
          "internalType": "struct SharedStructs.pawnOrder",
          "name": "",
          "type": "tuple"
        }
      ],
      "stateMutability": "view",
      "type": "function"
    },
    {
      "inputs": [
        {
          "internalType": "uint256",
          "name": "_orderID",
          "type": "uint256"
        }
      ],
      "name": "getSubContractAddress",
      "outputs": [
        {
          "internalType": "address",
          "name": "",
          "type": "address"
        }
      ],
      "stateMutability": "view",
      "type": "function"
    },
    {
      "inputs": [
        {
          "internalType": "uint256",
          "name": "_orderID",
          "type": "uint256"
        }
      ],
      "name": "getSubContractOrder",
      "outputs": [
        {
          "components": [
            {
              "internalType": "uint256",
              "name": "contractID",
              "type": "uint256"
            },
            {
              "internalType": "uint256",
              "name": "Price",
              "type": "uint256"
            },
            {
              "internalType": "string",
              "name": "itemName",
              "type": "string"
            },
            {
              "internalType": "string",
              "name": "Description",
              "type": "string"
            },
            {
              "internalType": "string",
              "name": "interestRate",
              "type": "string"
            },
            {
              "internalType": "string",
              "name": "status",
              "type": "string"
            },
            {
              "internalType": "uint256",
              "name": "startDate",
              "type": "uint256"
            },
            {
              "internalType": "bytes32",
              "name": "pawnerShippingHash",
              "type": "bytes32"
            },
            {
              "internalType": "bytes32",
              "name": "ownerShippingHash",
              "type": "bytes32"
            }
          ],
          "internalType": "struct SharedStructs.pawnOrder",
          "name": "",
          "type": "tuple"
        }
      ],
      "stateMutability": "view",
      "type": "function"
    },
    {
      "inputs": [
        {
          "internalType": "uint256",
          "name": "_orderID",
          "type": "uint256"
        }
      ],
      "name": "getSubContractVars",
      "outputs": [
        {
          "internalType": "uint256[]",
          "name": "",
          "type": "uint256[]"
        }
      ],
      "stateMutability": "view",
      "type": "function"
    },
    {
      "inputs": [
        {
          "internalType": "uint256",
          "name": "_orderID",
          "type": "uint256"
        }
      ],
      "name": "ownerConfirmShipping",
      "outputs": [],
      "stateMutability": "nonpayable",
      "type": "function"
    },
    {
      "inputs": [
        {
          "internalType": "uint256",
          "name": "_amount",
          "type": "uint256"
        },
        {
          "internalType": "uint256",
          "name": "contractID",
          "type": "uint256"
        }
      ],
      "name": "ownerPay",
      "outputs": [],
      "stateMutability": "nonpayable",
      "type": "function"
    },
    {
      "inputs": [
        {
          "internalType": "uint256",
          "name": "_orderID",
          "type": "uint256"
        }
      ],
      "name": "ownerWithdrawStakeEarly",
      "outputs": [],
      "stateMutability": "nonpayable",
      "type": "function"
    },
    {
      "inputs": [
        {
          "internalType": "uint256",
          "name": "_orderID",
          "type": "uint256"
        }
      ],
      "name": "pawnerConfirmShipping",
      "outputs": [],
      "stateMutability": "nonpayable",
      "type": "function"
    },
    {
      "inputs": [
        {
          "internalType": "uint256",
          "name": "",
          "type": "uint256"
        }
      ],
      "name": "subContracts",
      "outputs": [
        {
          "internalType": "contract TransactionContract",
          "name": "",
          "type": "address"
        }
      ],
      "stateMutability": "view",
      "type": "function"
    },
    {
      "stateMutability": "payable",
      "type": "receive"
    }
  ],
  "bytecode": "0x608060405234801561001057600080fd5b5061432c806100206000396000f3fe608060405260043610620001235760003560e01c80638fb326f211620000a1578063d09ef241116200006c578063d09ef241146200038b578063eb5945e414620003b0578063ef18e9ed14620003d5578063f6bbe51614620003fa578063fb596fb4146200043457600080fd5b80638fb326f214620002e057806394503635146200031c578063b50328e21462000341578063bab43e3d146200036657600080fd5b806339ad10f911620000ee57806339ad10f914620001d9578063658ae0ec14620001fe57806376dabe8e1462000232578063772ca14514620002665780637bea0d1c14620002b957600080fd5b806311a003271462000130578063136f557614620001575780632c7b7175146200017c5780632d79959f14620001a157600080fd5b366200012b57005b600080fd5b3480156200013d57600080fd5b50620001556200014f36600462001cad565b62000459565b005b3480156200016457600080fd5b50620001556200017636600462001cc7565b620004c2565b3480156200018957600080fd5b50620001556200019b36600462001cad565b62000553565b348015620001ae57600080fd5b50620001c6620001c036600462001cad565b620005a0565b6040519081526020015b60405180910390f35b348015620001e657600080fd5b5062000155620001f836600462001cc7565b620007fd565b3480156200020b57600080fd5b50620002236200021d36600462001cad565b6200085a565b604051620001d0919062001deb565b3480156200023f57600080fd5b50620002576200025136600462001cad565b620008ee565b604051620001d0919062001e07565b3480156200027357600080fd5b50620002a06200028536600462001cad565b6000908152600360205260409020546001600160a01b031690565b6040516001600160a01b039091168152602001620001d0565b348015620002c657600080fd5b50620002d162000ce8565b604051620001d0919062001e4d565b348015620002ed57600080fd5b5062000305620002ff36600462001cad565b620012ae565b604051620001d09998979695949392919062001eb5565b3480156200032957600080fd5b50620001556200033b36600462001cad565b62001537565b3480156200034e57600080fd5b50620001556200036036600462001cc7565b62001584565b3480156200037357600080fd5b50620001556200038536600462001cad565b62001631565b3480156200039857600080fd5b5062000223620003aa36600462001cad565b6200167e565b348015620003bd57600080fd5b5062000305620003cf36600462001cad565b62001948565b348015620003e257600080fd5b5062000155620003f436600462001cad565b62001972565b3480156200040757600080fd5b50620002a06200041936600462001cad565b6003602052600090815260409020546001600160a01b031681565b3480156200044157600080fd5b50620001c6620004533660046200203a565b62001a69565b600081815260036020526040808220548151631b08e42f60e11b815291516001600160a01b0390911692633611c85e926004808201939182900301818387803b158015620004a657600080fd5b505af1158015620004bb573d6000803e3d6000fd5b5050505050565b6000620004cf8262001bd0565b6000848152600260209081526040808320600701849055600390915290819020549051630da117e160e21b8152600481018390529192506001600160a01b0316906336845f84906024015b600060405180830381600087803b1580156200053557600080fd5b505af11580156200054a573d6000803e3d6000fd5b50505050505050565b6000818152600360205260408082205481516307755e7160e21b815291516001600160a01b0390911692631dd579c4926004808201939182900301818387803b158015620004a657600080fd5b6000818152600360205260408082205481516369b6f6e960e11b815291516001600160a01b03909116918391839163d36dedd291600480830192869291908290030181865afa158015620005f8573d6000803e3d6000fd5b505050506040513d6000823e601f3d908101601f1916820160405262000622919081019062002122565b60405169494e50524f475245535360b01b6020820152909150602a01604051602081830303815290604052805190602001208160a001516040516020016200066b919062002242565b6040516020818303038152906040528051906020012014620006ed5760405162461bcd60e51b815260206004820152603060248201527f43616e277420636865636b206c6f616e20616d6f756e74207965742c206f722060448201526f18dbdb9d1c9858dd08195e1c1a5c995960821b60648201526084015b60405180910390fd5b816001600160a01b031663f4b01b186040518163ffffffff1660e01b81526004016020604051808303816000875af11580156200072e573d6000803e3d6000fd5b505050506040513d601f19601f8201168201806040525081019062000754919062002260565b50816001600160a01b031663857865ec6040518163ffffffff1660e01b8152600401602060405180830381865afa15801562000794573d6000803e3d6000fd5b505050506040513d601f19601f82011682018060405250810190620007ba919062002260565b60018190556040519081527f0d7c4202c33769dab0a20def32c9bbe1673754d3fe2bb2f9e11995359ffe395b9060200160405180910390a1505060015492915050565b60006200080a8262001bd0565b60008481526002602090815260408083206008018490556003909152908190205490516398a0f64f60e01b8152600481018390529192506001600160a01b0316906398a0f64f906024016200051a565b6200086462001c4d565b6000828152600360205260408082205481516369b6f6e960e11b815291516001600160a01b039091169291839163d36dedd29160048082019286929091908290030181865afa158015620008bc573d6000803e3d6000fd5b505050506040513d6000823e601f3d908101601f19168201604052620008e6919081019062002122565b949350505050565b6000818152600360205260408082205481516369b6f6e960e11b815291516060936001600160a01b0390921692839163d36dedd29160048082019286929091908290030181865afa15801562000948573d6000803e3d6000fd5b505050506040513d6000823e601f3d908101601f1916820160405262000972919081019062002122565b90506000826001600160a01b031663c1c572276040518163ffffffff1660e01b8152600401602060405180830381865afa158015620009b5573d6000803e3d6000fd5b505050506040513d601f19601f82011682018060405250810190620009db919062002260565b90506000836001600160a01b031663f90a97f06040518163ffffffff1660e01b8152600401602060405180830381865afa15801562000a1e573d6000803e3d6000fd5b505050506040513d601f19601f8201168201806040525081019062000a44919062002260565b90506000846001600160a01b031663e5a4bed36040518163ffffffff1660e01b8152600401602060405180830381865afa15801562000a87573d6000803e3d6000fd5b505050506040513d601f19601f8201168201806040525081019062000aad919062002260565b90506000856001600160a01b0316630ec5798a6040518163ffffffff1660e01b8152600401602060405180830381865afa15801562000af0573d6000803e3d6000fd5b505050506040513d601f19601f8201168201806040525081019062000b16919062002260565b60c0860151909150600062000b2c838362002290565b90506000886001600160a01b031663857865ec6040518163ffffffff1660e01b8152600401602060405180830381865afa15801562000b6f573d6000803e3d6000fd5b505050506040513d601f19601f8201168201806040525081019062000b95919062002260565b604080516008808252610120820190925291925060009190602082016101008036833701905050905088602001518160008151811062000bd95762000bd9620022a6565b602002602001018181525050878160018151811062000bfc5762000bfc620022a6565b602002602001018181525050868160028151811062000c1f5762000c1f620022a6565b602002602001018181525050858160038151811062000c425762000c42620022a6565b602002602001018181525050848160048151811062000c655762000c65620022a6565b602002602001018181525050838160058151811062000c885762000c88620022a6565b602002602001018181525050828160068151811062000cab5762000cab620022a6565b602002602001018181525050818160078151811062000cce5762000cce620022a6565b60209081029190910101529b9a5050505050505050505050565b606060015b600054811162000da357600081815260026020818152604080842060049092529092208254815560018084015490820155908181019062000d31908401826200234d565b5060038181019062000d46908401826200234d565b5060048181019062000d5b908401826200234d565b5060058181019062000d70908401826200234d565b5060068281015490820155600780830154908201556008918201549101558062000d9a816200243a565b91505062000ced565b5060015b600054811162000f06576000818152600360205260409020546001600160a01b03161562000ef1576000818152600360205260408082205481516369b6f6e960e11b815291516001600160a01b039091169163d36dedd291600480830192869291908290030181865afa15801562000e23573d6000803e3d6000fd5b505050506040513d6000823e601f3d908101601f1916820160405262000e4d919081019062002122565b805160009081526004602090815260409182902083518155908301516001820155908201519192508291600282019062000e88908262002456565b506060820151600382019062000e9f908262002456565b506080820151600482019062000eb6908262002456565b5060a0820151600582019062000ecd908262002456565b5060c0820151600682015560e0820151600782015561010090910151600890910155505b8062000efd816200243a565b91505062000da7565b506000805467ffffffffffffffff81111562000f265762000f2662001f3c565b60405190808252806020026020018201604052801562000f6357816020015b62000f4f62001c4d565b81526020019060019003908162000f455790505b50905060015b60005481116200126f576004600082815260200190815260200160002060405180610120016040529081600082015481526020016001820154815260200160028201805462000fb890620022bc565b80601f016020809104026020016040519081016040528092919081815260200182805462000fe690620022bc565b8015620010375780601f106200100b5761010080835404028352916020019162001037565b820191906000526020600020905b8154815290600101906020018083116200101957829003601f168201915b505050505081526020016003820180546200105290620022bc565b80601f01602080910402602001604051908101604052809291908181526020018280546200108090620022bc565b8015620010d15780601f10620010a557610100808354040283529160200191620010d1565b820191906000526020600020905b815481529060010190602001808311620010b357829003601f168201915b50505050508152602001600482018054620010ec90620022bc565b80601f01602080910402602001604051908101604052809291908181526020018280546200111a90620022bc565b80156200116b5780601f106200113f576101008083540402835291602001916200116b565b820191906000526020600020905b8154815290600101906020018083116200114d57829003601f168201915b505050505081526020016005820180546200118690620022bc565b80601f0160208091040260200160405190810160405280929190818152602001828054620011b490620022bc565b8015620012055780601f10620011d95761010080835404028352916020019162001205565b820191906000526020600020905b815481529060010190602001808311620011e757829003601f168201915b50505091835250506006820154602082015260078201546040820152600890910154606090910152826200123b6001846200251a565b815181106200124e576200124e620022a6565b6020026020010181905250808062001266906200243a565b91505062000f69565b507ffbb2ccfdab273a235a91bcc815296a1459f3432565dd5aaf3612597858b4c18f81604051620012a1919062001e4d565b60405180910390a1919050565b600260208190526000918252604090912080546001820154928201805491939291620012da90620022bc565b80601f01602080910402602001604051908101604052809291908181526020018280546200130890620022bc565b8015620013595780601f106200132d5761010080835404028352916020019162001359565b820191906000526020600020905b8154815290600101906020018083116200133b57829003601f168201915b5050505050908060030180546200137090620022bc565b80601f01602080910402602001604051908101604052809291908181526020018280546200139e90620022bc565b8015620013ef5780601f10620013c357610100808354040283529160200191620013ef565b820191906000526020600020905b815481529060010190602001808311620013d157829003601f168201915b5050505050908060040180546200140690620022bc565b80601f01602080910402602001604051908101604052809291908181526020018280546200143490620022bc565b8015620014855780601f10620014595761010080835404028352916020019162001485565b820191906000526020600020905b8154815290600101906020018083116200146757829003601f168201915b5050505050908060050180546200149c90620022bc565b80601f0160208091040260200160405190810160405280929190818152602001828054620014ca90620022bc565b80156200151b5780601f10620014ef576101008083540402835291602001916200151b565b820191906000526020600020905b815481529060010190602001808311620014fd57829003601f168201915b5050505050908060060154908060070154908060080154905089565b6000818152600360205260408082205481516355a871c560e11b815291516001600160a01b039091169263ab50e38a926004808201939182900301818387803b158015620004a657600080fd5b6000818152600360205260408082205490516001600160a01b039091169190829085908381818185875af1925050503d8060008114620015e1576040519150601f19603f3d011682016040523d82523d6000602084013e620015e6565b606091505b50509050806200162b5760405162461bcd60e51b815260206004820152600f60248201526e151c985b9cd9995c8819985a5b1959608a1b6044820152606401620006e4565b50505050565b60008181526003602052604080822054815163259a98c360e11b815291516001600160a01b0390911692634b353186926004808201939182900301818387803b158015620004a657600080fd5b6200168862001c4d565b60026000838152602001908152602001600020604051806101200160405290816000820154815260200160018201548152602001600282018054620016cd90620022bc565b80601f0160208091040260200160405190810160405280929190818152602001828054620016fb90620022bc565b80156200174c5780601f1062001720576101008083540402835291602001916200174c565b820191906000526020600020905b8154815290600101906020018083116200172e57829003601f168201915b505050505081526020016003820180546200176790620022bc565b80601f01602080910402602001604051908101604052809291908181526020018280546200179590620022bc565b8015620017e65780601f10620017ba57610100808354040283529160200191620017e6565b820191906000526020600020905b815481529060010190602001808311620017c857829003601f168201915b505050505081526020016004820180546200180190620022bc565b80601f01602080910402602001604051908101604052809291908181526020018280546200182f90620022bc565b8015620018805780601f10620018545761010080835404028352916020019162001880565b820191906000526020600020905b8154815290600101906020018083116200186257829003601f168201915b505050505081526020016005820180546200189b90620022bc565b80601f0160208091040260200160405190810160405280929190818152602001828054620018c990620022bc565b80156200191a5780601f10620018ee576101008083540402835291602001916200191a565b820191906000526020600020905b815481529060010190602001808311620018fc57829003601f168201915b5050505050815260200160068201548152602001600782015481526020016008820154815250509050919050565b60046020526000908152604090208054600182015460028301805492939192620012da90620022bc565b604051806040016040528060088152602001671050d0d15415115160c21b815250600260008381526020019081526020016000206005019081620019b7919062002456565b506000818152600260208190526040822042600682015560010154620019dd9162002530565b90506000670de0b6b3a7640000826002600086815260200190815260200160002060405162001a0c9062001c9f565b62001a1a93929190620025cf565b604051809103906000f08015801562001a37573d6000803e3d6000fd5b5060009384526003602052604090932080546001600160a01b0319166001600160a01b03909416939093179092555050565b60008054818062001a7a836200243a565b9190505550604051806101200160405280600054815260200186670de0b6b3a764000062001aa9919062002530565b8152602080820187905260408083018790526060830186905280518082018252600781526650454e44494e4760c81b818401526080840152600060a0840181905260c0840181905260e09093018390528254835260028083529281902084518155918401516001830155830151909182019062001b27908262002456565b506060820151600382019062001b3e908262002456565b506080820151600482019062001b55908262002456565b5060a0820151600582019062001b6c908262002456565b5060c0820151600682015560e08201516007820155610100909101516008909101556000546040519081527f7e82078c35b6665b9d320ebeaa6c266960fad5b802c5558cf7df60c4769af95b9060200160405180910390a150600054949350505050565b600060028260405160200162001be891815260200190565b60408051601f198184030181529082905262001c049162002242565b602060405180830381855afa15801562001c22573d6000803e3d6000fd5b5050506040513d601f19601f8201168201806040525081019062001c47919062002260565b92915050565b6040518061012001604052806000815260200160008152602001606081526020016060815260200160608152602001606081526020016000815260200160008019168152602001600080191681525090565b611c66806200269183390190565b60006020828403121562001cc057600080fd5b5035919050565b6000806040838503121562001cdb57600080fd5b50508035926020909101359150565b60005b8381101562001d0757818101518382015260200162001ced565b50506000910152565b6000815180845262001d2a81602086016020860162001cea565b601f01601f19169290920160200192915050565b60006101208251845260208301516020850152604083015181604086015262001d6a8286018262001d10565b9150506060830151848203606086015262001d86828262001d10565b9150506080830151848203608086015262001da2828262001d10565b91505060a083015184820360a086015262001dbe828262001d10565b91505060c083015160c085015260e083015160e08501526101008084015181860152508091505092915050565b60208152600062001e00602083018462001d3e565b9392505050565b6020808252825182820181905260009190848201906040850190845b8181101562001e415783518352928401929184019160010162001e23565b50909695505050505050565b600060208083016020845280855180835260408601915060408160051b87010192506020870160005b8281101562001ea857603f1988860301845262001e9585835162001d3e565b9450928501929085019060010162001e76565b5092979650505050505050565b60006101208b83528a602084015280604084015262001ed78184018b62001d10565b9050828103606084015262001eed818a62001d10565b9050828103608084015262001f03818962001d10565b905082810360a084015262001f19818862001d10565b60c0840196909652505060e0810192909252610100909101529695505050505050565b634e487b7160e01b600052604160045260246000fd5b604051610120810167ffffffffffffffff8111828210171562001f795762001f7962001f3c565b60405290565b604051601f8201601f1916810167ffffffffffffffff8111828210171562001fab5762001fab62001f3c565b604052919050565b600067ffffffffffffffff82111562001fd05762001fd062001f3c565b50601f01601f191660200190565b600082601f83011262001ff057600080fd5b813562002007620020018262001fb3565b62001f7f565b8181528460208386010111156200201d57600080fd5b816020850160208301376000918101602001919091529392505050565b600080600080608085870312156200205157600080fd5b84359350602085013567ffffffffffffffff808211156200207157600080fd5b6200207f8883890162001fde565b945060408701359150808211156200209657600080fd5b620020a48883890162001fde565b93506060870135915080821115620020bb57600080fd5b50620020ca8782880162001fde565b91505092959194509250565b600082601f830112620020e857600080fd5b8151620020f9620020018262001fb3565b8181528460208386010111156200210f57600080fd5b620008e682602083016020870162001cea565b6000602082840312156200213557600080fd5b815167ffffffffffffffff808211156200214e57600080fd5b9083019061012082860312156200216457600080fd5b6200216e62001f52565b82518152602083015160208201526040830151828111156200218f57600080fd5b6200219d87828601620020d6565b604083015250606083015182811115620021b657600080fd5b620021c487828601620020d6565b606083015250608083015182811115620021dd57600080fd5b620021eb87828601620020d6565b60808301525060a0830151828111156200220457600080fd5b6200221287828601620020d6565b60a08301525060c0838101519082015260e080840151908201526101009283015192810192909252509392505050565b600082516200225681846020870162001cea565b9190910192915050565b6000602082840312156200227357600080fd5b5051919050565b634e487b7160e01b600052601160045260246000fd5b8082018082111562001c475762001c476200227a565b634e487b7160e01b600052603260045260246000fd5b600181811c90821680620022d157607f821691505b602082108103620022f257634e487b7160e01b600052602260045260246000fd5b50919050565b601f82111562002348576000816000526020600020601f850160051c81016020861015620023235750805b601f850160051c820191505b8181101562002344578281556001016200232f565b5050505b505050565b81810362002359575050565b620023658254620022bc565b67ffffffffffffffff81111562002380576200238062001f3c565b6200239881620023918454620022bc565b84620022f8565b6000601f821160018114620023cf5760008315620023b65750848201545b600019600385901b1c1916600184901b178455620004bb565b600085815260209020601f19841690600086815260209020845b838110156200240b5782860154825560019586019590910190602001620023e9565b50858310156200242a5781850154600019600388901b60f8161c191681555b5050505050600190811b01905550565b6000600182016200244f576200244f6200227a565b5060010190565b815167ffffffffffffffff81111562002473576200247362001f3c565b6200248481620023918454620022bc565b602080601f831160018114620024bc5760008415620024a35750858301515b600019600386901b1c1916600185901b17855562002344565b600085815260208120601f198616915b82811015620024ed57888601518255948401946001909101908401620024cc565b50858210156200242a57939096015160001960f8600387901b161c19169092555050600190811b01905550565b8181038181111562001c475762001c476200227a565b808202811582820484141762001c475762001c476200227a565b600081546200255981620022bc565b8085526020600183811680156200257957600181146200259457620025c4565b60ff1985168884015283151560051b880183019550620025c4565b866000528260002060005b85811015620025bc5781548a82018601529083019084016200259f565b890184019650505b505050505092915050565b83815282602082015260606040820152815460608201526001820154608082015260006101208060a08401526200260e6101808401600286016200254a565b605f19808583030160c08601526200262a82600388016200254a565b9150808583030160e08601526200264582600488016200254a565b91508085830301610100860152506200266281600587016200254a565b905060068501548285015260078501546101408501526008850154610160850152809250505094935050505056fe60806040523480156200001157600080fd5b5060405162001c6638038062001c66833981016040819052620000349162000333565b600283905560038290558051600c9081556020820151600d556040820151829190600e90620000649082620004f9565b50606082015160038201906200007b9082620004f9565b5060808201516004820190620000929082620004f9565b5060a08201516005820190620000a99082620004f9565b5060c082015160068083019190915560e0830151600783015561010090920151600890910155600080546001600160a01b031916331790556040805180820182529182526529a4a62b22a960d11b602090920191909152517f75e02a3ee626f5d4b8bc98cc8de5b102ee067608b6066832ffdc71f78445ac2b906200013190601090620005c5565b6040518091039020036200015157600f60045562093a8060065562000228565b604080518082018252600481526311d3d31160e21b602090910152517fdbd17891fc491ac6717dd01ab1f90f82509f1f2e91cd5066f68805860fbdeb72906200019d90601090620005c5565b604051809103902003620001bd5760196004556212750060065562000228565b6040805180820182526008815267504c4154494e554d60c01b602090910152517fecbba860b0e9fdd311c554f0b28ccf3d616b99de2f208aa830a91bd846d16657906200020d90601090620005c5565b60405180910390200362000228576023600455621baf806006555b50505062000643565b634e487b7160e01b600052604160045260246000fd5b60405161012081016001600160401b03811182821017156200026d576200026d62000231565b60405290565b604051601f8201601f191681016001600160401b03811182821017156200029e576200029e62000231565b604052919050565b600082601f830112620002b857600080fd5b81516001600160401b03811115620002d457620002d462000231565b6020620002ea601f8301601f1916820162000273565b8281528582848701011115620002ff57600080fd5b60005b838110156200031f57858101830151828201840152820162000302565b506000928101909101919091529392505050565b6000806000606084860312156200034957600080fd5b83516020850151604086015191945092506001600160401b03808211156200037057600080fd5b9085019061012082880312156200038657600080fd5b6200039062000247565b8251815260208301516020820152604083015182811115620003b157600080fd5b620003bf89828601620002a6565b604083015250606083015182811115620003d857600080fd5b620003e689828601620002a6565b606083015250608083015182811115620003ff57600080fd5b6200040d89828601620002a6565b60808301525060a0830151828111156200042657600080fd5b6200043489828601620002a6565b60a08301525060c083015160c082015260e083015160e0820152610100915081830151828201528093505050509250925092565b600181811c908216806200047d57607f821691505b6020821081036200049e57634e487b7160e01b600052602260045260246000fd5b50919050565b601f821115620004f4576000816000526020600020601f850160051c81016020861015620004cf5750805b601f850160051c820191505b81811015620004f057828155600101620004db565b5050505b505050565b81516001600160401b0381111562000515576200051562000231565b6200052d8162000526845462000468565b84620004a4565b602080601f8311600181146200056557600084156200054c5750858301515b600019600386901b1c1916600185901b178555620004f0565b600085815260208120601f198616915b82811015620005965788860151825594840194600190910190840162000575565b5085821015620005b55787850151600019600388901b60f8161c191681555b5050505050600190811b01905550565b6000808354620005d58162000468565b60018281168015620005f05760018114620006065762000637565b60ff198416875282151583028701945062000637565b8760005260208060002060005b858110156200062e5781548a82015290840190820162000613565b50505082870194505b50929695505050505050565b61161380620006536000396000f3fe6080604052600436106100f75760003560e01c806398a0f64f1161008a578063d36dedd211610059578063d36dedd2146105c6578063e5a4bed3146105e8578063f4b01b18146105fd578063f90a97f01461061257600080fd5b806398a0f64f1461055c578063ab50e38a1461057c578063ac31e3d314610591578063c1c57227146105b157600080fd5b806341f788b8116100c657806341f788b8146104e55780634b353186146104fa578063857865ec1461050f5780638da5cb5b1461052457600080fd5b80630ec5798a146104775780631dd579c41461049b5780633611c85e146104b057806336845f84146104c557600080fd5b3661047257426009556006546012546101109190611204565b6007556000546001600160a01b0316331480159061013057506002543410155b801561018f575060408051808201825260088152671050d0d15415115160c21b602090910152517f66a524c81cf8e657f1147e56f41f83002f6210ee7ae7b08d255f786088ae96f79061018590601190611257565b6040518091039020145b1561024057600180546001600160a01b0319163317905534600555600054600354600c54604051635a81947160e11b8152600481019290925260248201526001600160a01b039091169063b50328e290604401600060405180830381600087803b1580156101fc57600080fd5b505af1158015610210573d6000803e3d6000fd5b505060408051808201909152600681526514d51052d15160d21b60208201526011925061023e915082611334565b005b600754600954111561031a576040805180820190915260078152661156141254915160ca1b60208201526011906102779082611334565b50600080546003546040516001600160a01b039092169281156108fc029290818181858888f193505050501580156102b3573d6000803e3d6000fd5b5060405162461bcd60e51b815260206004820152603060248201527f436f6e74726163742068617320657870697265642c20796f7572206974656d2060448201526f1a5cc81b9bddc8199bdc99995a5d195960821b60648201526084015b60405180910390fd5b6000546001600160a01b03163314801590610336575060025434105b156103795760405162461bcd60e51b8152602060048201526013602482015272125b9cdd59999a58da595b9d08185b5bdd5b9d606a1b6044820152606401610311565b604080518082018252600a815269494e50524f475245535360b01b602090910152517fa7e65e0bed9d21ec7bed74653b17557aefb58442f31dab0a03009aa7048e32e6906103c990601190611257565b60405180910390201480156103e857506001546001600160a01b031633145b80156103f55750600a5415155b1561023e57600a543410156104425760405162461bcd60e51b8152602060048201526013602482015272125b9cdd59999a58da595b9d08185b5bdd5b9d606a1b6044820152606401610311565b604080518082019091526005815264141056515160da1b602082015260119061046b9082611334565b5034600555005b600080fd5b34801561048357600080fd5b506006545b6040519081526020015b60405180910390f35b3480156104a757600080fd5b5061023e610627565b3480156104bc57600080fd5b5061023e6107b5565b3480156104d157600080fd5b5061023e6104e03660046113f4565b610914565b3480156104f157600080fd5b5061023e6109cb565b34801561050657600080fd5b5061023e610b5f565b34801561051b57600080fd5b50600a54610488565b34801561053057600080fd5b50600054610544906001600160a01b031681565b6040516001600160a01b039091168152602001610492565b34801561056857600080fd5b5061023e6105773660046113f4565b610cec565b34801561058857600080fd5b5061023e610d1b565b34801561059d57600080fd5b50600154610544906001600160a01b031681565b3480156105bd57600080fd5b50600254610488565b3480156105d257600080fd5b506105db610e87565b6040516104929190611453565b3480156105f457600080fd5b50600454610488565b34801561060957600080fd5b50610488611165565b34801561061e57600080fd5b50600354610488565b6000546001600160a01b031633146106515760405162461bcd60e51b81526004016103119061150b565b604080518082018252600681526514d51052d15160d21b602090910152516000805160206115be8339815191529061068b90601190611257565b6040518091039020146106b05760405162461bcd60e51b81526004016103119061153a565b6013541561070e5760405162461bcd60e51b815260206004820152602560248201527f5061776e65722068617320736869707065642c207374616b657320617265206c6044820152641bd8dad95960da1b6064820152608401610311565b600080546003546040516001600160a01b039092169281156108fc029290818181858888f19350505050158015610749573d6000803e3d6000fd5b506001546005546040516001600160a01b039092169181156108fc0291906000818181858888f19350505050158015610786573d6000803e3d6000fd5b506040805180820190915260078152661156141254915160ca1b60208201526011906107b29082611334565b50565b6000546001600160a01b031633146107df5760405162461bcd60e51b81526004016103119061150b565b604080518082018252600681526514d51052d15160d21b602090910152516000805160206115be8339815191529061081990601190611257565b60405180910390201461086e5760405162461bcd60e51b815260206004820152601960248201527f4f7264657220686173206e6f74206265656e205354414b4544000000000000006044820152606401610311565b600080546003546040516001600160a01b039092169281156108fc029290818181858888f193505050501580156108a9573d6000803e3d6000fd5b506001546005546040516001600160a01b039092169181156108fc0291906000818181858888f193505050501580156108e6573d6000803e3d6000fd5b5060408051808201909152600981526810d05390d15313115160ba1b60208201526011906107b29082611334565b6000546001600160a01b031633146109675760405162461bcd60e51b81526020600482015260166024820152752cb7ba9030b932903737ba103a3432903830bbb732b960511b6044820152606401610311565b604080518082018252600681526514d51052d15160d21b602090910152516000805160206115be833981519152906109a190601190611257565b6040518091039020146109c65760405162461bcd60e51b81526004016103119061153a565b601355565b6000546001600160a01b031633146109f55760405162461bcd60e51b81526004016103119061150b565b600754421115610a2c576040805180820190915260078152661156141254915160ca1b6020820152601190610a2a9082611334565b505b6040805180820182526007815266115e1c1a5c995960ca1b602090910152517ff183c8b0f89612f6f096bf1f0017061404d2019bd0580f7b18bddb8dcc0d7a1390610a7990601190611257565b604051809103902014610ae75760405162461bcd60e51b815260206004820152603060248201527f4f7264657220686173206e6f7420657870697265642c20746865207374616b6560448201526f081a5cc81cdd1a5b1b081b1bd8dad95960821b6064820152608401610311565b600080546003546040516001600160a01b039092169281156108fc029290818181858888f19350505050158015610b22573d6000803e3d6000fd5b506001546005546040516001600160a01b039092169181156108fc0291906000818181858888f193505050501580156107b2573d6000803e3d6000fd5b6000546001600160a01b03163314610b895760405162461bcd60e51b81526004016103119061150b565b6040805180820182526005815264141056515160da1b602090910152517fd09fe373b9999c0a43b9cdc56b321f4f3dac0de228f70ee79ae1baf911e5ad3990610bd490601190611257565b604051809103902014610c225760405162461bcd60e51b815260206004820152601660248201527513dc99195c881a5cc81b9bdd081c185e5959081e595d60521b6044820152606401610311565b60408051808201909152600981526810d3d354131155115160ba1b6020820152601190610c4f9082611334565b506000600a54600354610c629190611204565b600080546040519293506001600160a01b03169183156108fc0291849190818181858888f19350505050158015610c9d573d6000803e3d6000fd5b50600154600a546005546001600160a01b03909216916108fc91610cc091611571565b6040518115909202916000818181858888f19350505050158015610ce8573d6000803e3d6000fd5b5050565b6000546001600160a01b03163314610d165760405162461bcd60e51b81526004016103119061150b565b601455565b6000546001600160a01b03163314610d455760405162461bcd60e51b81526004016103119061150b565b604080518082018252600681526514d51052d15160d21b602090910152516000805160206115be83398151915290610d7f90601190611257565b604051809103902014610da45760405162461bcd60e51b81526004016103119061153a565b600054600d54600c54604051635a81947160e11b8152600481019290925260248201526001600160a01b039091169063b50328e290604401600060405180830381600087803b158015610df657600080fd5b505af1158015610e0a573d6000803e3d6000fd5b5050600154600d546005546001600160a01b0390921693506108fc9250610e3091611204565b6040518115909202916000818181858888f19350505050158015610e58573d6000803e3d6000fd5b5060408051808201909152600a815269494e50524f475245535360b01b60208201526011906107b29082611334565b610edc6040518061012001604052806000815260200160008152602001606081526020016060815260200160608152602001606081526020016000815260200160008019168152602001600080191681525090565b6040805161012081018252600c80548252600d546020830152600e80549293919291840191610f0a9061121d565b80601f0160208091040260200160405190810160405280929190818152602001828054610f369061121d565b8015610f835780601f10610f5857610100808354040283529160200191610f83565b820191906000526020600020905b815481529060010190602001808311610f6657829003601f168201915b50505050508152602001600382018054610f9c9061121d565b80601f0160208091040260200160405190810160405280929190818152602001828054610fc89061121d565b80156110155780601f10610fea57610100808354040283529160200191611015565b820191906000526020600020905b815481529060010190602001808311610ff857829003601f168201915b5050505050815260200160048201805461102e9061121d565b80601f016020809104026020016040519081016040528092919081815260200182805461105a9061121d565b80156110a75780601f1061107c576101008083540402835291602001916110a7565b820191906000526020600020905b81548152906001019060200180831161108a57829003601f168201915b505050505081526020016005820180546110c09061121d565b80601f01602080910402602001604051908101604052809291908181526020018280546110ec9061121d565b80156111395780601f1061110e57610100808354040283529160200191611139565b820191906000526020600020905b81548152906001019060200180831161111c57829003601f168201915b505050505081526020016006820154815260200160078201548152602001600882015481525050905090565b60004261117481610258611204565b600b5560065460075460009161118991611571565b905060006111978284611571565b9050600060065460646111aa9190611584565b600454600d546111bb908590611584565b6111c59190611584565b6111cf919061159b565b600d549091506111e0908290611204565b600a81905595945050505050565b634e487b7160e01b600052601160045260246000fd5b80820180821115611217576112176111ee565b92915050565b600181811c9082168061123157607f821691505b60208210810361125157634e487b7160e01b600052602260045260246000fd5b50919050565b60008083546112658161121d565b6001828116801561127d5760018114611292576112c1565b60ff19841687528215158302870194506112c1565b8760005260208060002060005b858110156112b85781548a82015290840190820161129f565b50505082870194505b50929695505050505050565b634e487b7160e01b600052604160045260246000fd5b601f82111561132f576000816000526020600020601f850160051c8101602086101561130c5750805b601f850160051c820191505b8181101561132b57828155600101611318565b5050505b505050565b815167ffffffffffffffff81111561134e5761134e6112cd565b6113628161135c845461121d565b846112e3565b602080601f831160018114611397576000841561137f5750858301515b600019600386901b1c1916600185901b17855561132b565b600085815260208120601f198616915b828110156113c6578886015182559484019460019091019084016113a7565b50858210156113e45787850151600019600388901b60f8161c191681555b5050505050600190811b01905550565b60006020828403121561140657600080fd5b5035919050565b6000815180845260005b8181101561143357602081850181015186830182015201611417565b506000602082860101526020601f19601f83011685010191505092915050565b6020815281516020820152602082015160408201526000604083015161012080606085015261148661014085018361140d565b91506060850151601f19808685030160808701526114a4848361140d565b935060808701519150808685030160a08701526114c1848361140d565b935060a08701519150808685030160c0870152506114df838261140d565b60c087015160e08781019190915287015161010080880191909152909601519190940152509192915050565b6020808252601590820152742cb7ba9030b932903737ba103a34329037bbb732b960591b604082015260600190565b60208082526019908201527f4f7264657220686173206e6f74206265656e207374616b656400000000000000604082015260600190565b81810381811115611217576112176111ee565b8082028115828204841417611217576112176111ee565b6000826115b857634e487b7160e01b600052601260045260246000fd5b50049056feb0ed35c647c68f7e1ccd55101f8b88391aa14e81cd4c5d146576db98afb481c3a264697066735822122042e226bf4c545de796e11f0be9314a510450155010a65dc53da686b8aa0e25b164736f6c63430008180033a2646970667358221220890afc3745164336f301bc0aad2a251ecef771b86815a07a42d51d026eda7a6564736f6c63430008180033",
  "linkReferences": {},
  "deployedLinkReferences": {}
}